{
  "contractName": "CounterContract",
  "abi": [
    {
      "inputs": [],
      "name": "current",
      "outputs": [
        {
          "internalType": "uint256",
          "name": "",
          "type": "uint256"
        }
      ],
      "stateMutability": "view",
      "type": "function"
    },
    {
      "inputs": [],
      "name": "increment",
      "outputs": [],
      "stateMutability": "nonpayable",
      "type": "function"
    },
    {
      "inputs": [],
      "name": "decrement",
      "outputs": [],
      "stateMutability": "nonpayable",
      "type": "function"
    },
    {
      "inputs": [],
      "name": "reset",
      "outputs": [],
      "stateMutability": "nonpayable",
      "type": "function"
    }
  ],
  "bytecode": "0x608060405234801561001057600080fd5b506101fc806100206000396000f3fe608060405234801561001057600080fd5b506004361061004c5760003560e01c80632baeceb7146100515780639fa6a6e31461005b578063d09de08a14610079578063d826f88f14610083575b600080fd5b61005961008d565b005b6100636100e8565b604051610070919061012e565b60405180910390f35b6100816100f4565b005b61008b610109565b005b600080600001549050600081116100d9576040517f08c379a00000000000000000000000000000000000000000000000000000000081526004016100d0906101a6565b60405180910390fd5b60018103600080018190555050565b60008060000154905090565b60016000800160008282540192505081905550565b60008060000181905550565b6000819050919050565b61012881610115565b82525050565b6000602082019050610143600083018461011f565b92915050565b600082825260208201905092915050565b7f436f756e7465723a2064656372656d656e74206f766572666c6f770000000000600082015250565b6000610190601b83610149565b915061019b8261015a565b602082019050919050565b600060208201905081810360008301526101bf81610183565b905091905056fea26469706673582212202f6acd0905da4ac5f83d36a81b89638b5de24f5bd8e88a39ff2b7979bd8f659b64736f6c634300080d0033",
  "immutableReferences": {},
  "source": "// SPDX-License-Identifier: MIT\npragma solidity 0.8.13;\n\ncontract CounterContract {\n\n  struct Counter {\n        uint256 _value;\n    }\n    Counter counter;\n\n    function current() public view returns (uint256) {\n        return counter._value;\n    }\n\n    function increment() public {\n        unchecked {\n            counter._value += 1;\n        }\n    }\n\n    function decrement() public {\n        uint256 value = counter._value;\n        require(value > 0, \"Counter: decrement overflow\");\n        unchecked {\n            counter._value = value - 1;\n        }\n    }\n\n    function reset() public {\n        counter._value = 0;\n    }\n}\n",
  "sourcePath": "C:\\Users\\Ben\\Desktop\\era-parcel\\contracts\\Counter.sol",
  "compiler": {
    "name": "solc",
    "version": "0.8.13+commit.abaa5c0e.Emscripten.clang"
  },
  "schemaVersion": "3.4.7",
  "updatedAt": "2022-04-20T21:42:38.291Z",
  "devdoc": {
    "kind": "dev",
    "methods": {},
    "version": 1
  },
  "userdoc": {
    "kind": "user",
    "methods": {},
    "version": 1
  }
}